{
  "contractName": "MyContract",
  "abi": [
    {
      "inputs": [
        {
          "internalType": "string",
          "name": "_pair",
          "type": "string"
        }
      ],
      "name": "setter_amount",
      "outputs": [],
      "stateMutability": "nonpayable",
      "type": "function"
    },
    {
      "inputs": [],
      "name": "getter",
      "outputs": [
        {
          "internalType": "int256",
          "name": "",
          "type": "int256"
        }
      ],
      "stateMutability": "view",
      "type": "function",
      "constant": true
    }
  ],
  "bytecode": "0x60806040526040518060c001604052806040518060400160405280600781526020017f5553442f5255420000000000000000000000000000000000000000000000000081525081526020016040518060400160405280600781526020017f5553442f4555520000000000000000000000000000000000000000000000000081525081526020016040518060400160405280600781526020017f4555522f5255420000000000000000000000000000000000000000000000000081525081526020016040518060400160405280600781526020017f4555522f5553440000000000000000000000000000000000000000000000000081525081526020016040518060400160405280600781526020017f5255422f5553440000000000000000000000000000000000000000000000000081525081526020016040518060400160405280600781526020017f5255422f45555200000000000000000000000000000000000000000000000000815250815250600090600661017f929190610192565b5034801561018c57600080fd5b50610359565b8280548282559060005260206000209081019282156101e1579160200282015b828111156101e05782518290805190602001906101d09291906101f2565b50916020019190600101906101b2565b5b5090506101ee9190610278565b5090565b8280546101fe90610328565b90600052602060002090601f0160209004810192826102205760008555610267565b82601f1061023957805160ff1916838001178555610267565b82800160010185558215610267579182015b8281111561026657825182559160200191906001019061024b565b5b509050610274919061029c565b5090565b5b80821115610298576000818161028f91906102b9565b50600101610279565b5090565b5b808211156102b557600081600090555060010161029d565b5090565b5080546102c590610328565b6000825580601f106102d757506102f6565b601f0160209004906000526020600020908101906102f5919061029c565b5b50565b7f4e487b7100000000000000000000000000000000000000000000000000000000600052602260045260246000fd5b6000600282049050600182168061034057607f821691505b602082108103610353576103526102f9565b5b50919050565b610556806103686000396000f3fe608060405234801561001057600080fd5b50600436106100365760003560e01c80636233405c1461003b578063993a04b714610057575b600080fd5b6100556004803603810190610050919061035a565b610075565b005b61005f61021c565b60405161006c91906103c0565b60405180910390f35b818160019190610086929190610248565b50620164cc6002600080815481106100a1576100a06103db565b5b906000526020600020016040516100b89190610509565b90815260200160405180910390208190555061038e600260006001815481106100e4576100e36103db565b5b906000526020600020016040516100fb9190610509565b90815260200160405180910390208190555062018a2460026000600281548110610128576101276103db565b5b9060005260206000200160405161013f9190610509565b90815260200160405180910390208190555061044c6002600060038154811061016b5761016a6103db565b5b906000526020600020016040516101829190610509565b908152602001604051809103902081905550600a600260006004815481106101ad576101ac6103db565b5b906000526020600020016040516101c49190610509565b9081526020016040518091039020819055506009600260006005815481106101ef576101ee6103db565b5b906000526020600020016040516102069190610509565b9081526020016040518091039020819055505050565b600080600260016040516102309190610509565b90815260200160405180910390205490508091505090565b82805461025490610439565b90600052602060002090601f01602090048101928261027657600085556102bd565b82601f1061028f57803560ff19168380011785556102bd565b828001600101855582156102bd579182015b828111156102bc5782358255916020019190600101906102a1565b5b5090506102ca91906102ce565b5090565b5b808211156102e75760008160009055506001016102cf565b5090565b600080fd5b600080fd5b600080fd5b600080fd5b600080fd5b60008083601f84011261031a576103196102f5565b5b8235905067ffffffffffffffff811115610337576103366102fa565b5b602083019150836001820283011115610353576103526102ff565b5b9250929050565b60008060208385031215610371576103706102eb565b5b600083013567ffffffffffffffff81111561038f5761038e6102f0565b5b61039b85828601610304565b92509250509250929050565b6000819050919050565b6103ba816103a7565b82525050565b60006020820190506103d560008301846103b1565b92915050565b7f4e487b7100000000000000000000000000000000000000000000000000000000600052603260045260246000fd5b7f4e487b7100000000000000000000000000000000000000000000000000000000600052602260045260246000fd5b6000600282049050600182168061045157607f821691505b6020821081036104645761046361040a565b5b50919050565b600081905092915050565b60008190508160005260206000209050919050565b6000815461049781610439565b6104a1818661046a565b945060018216600081146104bc57600181146104cd57610500565b60ff19831686528186019350610500565b6104d685610475565b60005b838110156104f8578154818901526001820191506020810190506104d9565b838801955050505b50505092915050565b6000610515828461048a565b91508190509291505056fea264697066735822122022beba7fe1eaa29c3bed728d0c01f72280c34fe267be792241bbb08724e47c5564736f6c634300080d0033",
  "immutableReferences": {},
  "source": "// SPDX-License-Identifier: MIT\r\npragma solidity >=0.4.22 <0.9.0;\r\n\r\ncontract MyContract {\r\n\r\n    //  \r\n    string[] pairs = [\"USD/RUB\", \"USD/EUR\", \"EUR/RUB\", \"EUR/USD\", \"RUB/USD\", \"RUB/EUR\"];\r\n\r\n    string pair;\r\n\r\n    mapping(string => int) internal pairNums;\r\n\r\n    //  \r\n    function setter_amount(string calldata _pair) public {\r\n        pair = _pair;\r\n        pairNums[pairs[0]] = 91340;\r\n        pairNums[pairs[1]] = 910;\r\n        pairNums[pairs[2]] = 100900;\r\n        pairNums[pairs[3]] = 1100;\r\n        pairNums[pairs[4]] = 10;\r\n        pairNums[pairs[5]] = 9;\r\n    }\r\n\r\n    //  \r\n    function getter() public view returns (int) {\r\n        int n = pairNums[pair];\r\n        return n;\r\n    }\r\n}",
  "sourcePath": "C:\\Users\\USER\\Desktop\\\\contracts\\MyContract.sol",
  "compiler": {
    "name": "solc",
    "version": "0.8.13+commit.abaa5c0e.Emscripten.clang"
  },
  "schemaVersion": "3.4.16",
  "updatedAt": "2023-12-27T05:40:52.235Z",
  "networkType": "ethereum",
  "devdoc": {
    "kind": "dev",
    "methods": {},
    "version": 1
  },
  "userdoc": {
    "kind": "user",
    "methods": {},
    "version": 1
  }
}